:100000000C947A100C940E5B0C94E35A0C94B85A2E
:100010000C94A4100C94A4100C94A4100C94A41090
:100020000C94A4100C94A4100C94A4100C94A41080
:100030000C94A4100C94A4100C9488890C94A41013
:100040000C941D560C94A4100C946E5A0C94A4108D
:100050000C947D5B0C94395B0C94A4100C94A4104C
:100060000C9459780C94A4100C945C770C94A41004
:100070000C94455C0C94F35B0C94CA5B0C94A41038
:100080000C94A4100C94A4100C94A41048185418A8
:100090005418451854184B18511839183F1854184B
:1000A000541854185418541854183C185418541808
:1000B000541836185418421854184E18C657C957B1
:1000C000BC57C057E057E057CD57D157D757DB57EC
:1000D000D06A796D036D796D796D466CE66B796DDB
:1000E000796D796D796D796D246B7F6B796D796D33
:1000F000796D7F6CA269BE6C796D796D796D796D62
:10010000796D5A6AF7B508B614B620B623B626B686
:1001100032B63EB641B64DB64E414E494E4954599F
:10012000494E46CDCCCC3D0AD7233C17B7D13877C2
:10013000CC2B329595E6241FB14F0A0000204100D8
:1001400000C84200401C4620BCBE4CCA1B0E5AAE22
:10015000C59D7400407A10F35A00A0724E18090031
:1001600010A5D4E80000E87648170000E40B54021C
:100170000000CA9A3B000000E1F505000080969857
:1001800000000040420F000000A0860100000010A7
:100190002700000000E803000000006400000000E9
:1001A000000A00000000000100000000002C76D8CA
:1001B00088DC674F0823DFC1DFAE59E1B1B796E5B0
:1001C000E3E453C63AE651997696E8E6C28426EB14
:1001D000898C9B62ED407C6FFCEFBC9C9F40F2BA27
:1001E000A56FA5F490055A2AF75C936B6CF9676DBF
:1001F000C11BFCE0E40D47FEF520E6B500D0ED9014
:100200002E0300943577050080841E080000204EE0
:100210000A000000C80C333333330F986E12831179
:1002200041EF8D2114893BE65516CFFEE6DB18D150
:10023000844B381BF77C1D901DA4BBE42420328422
:10024000725E228100C9F124ECA1E53D27436F6E67
:1002500074656E742D547970653A20746578742FC6
:1002600068746D6C0D0A0D0A3C68313E5765625327
:100270006572766572206661696C65643C2F6831D1
:100280003E00485454502F312E302034303020421C
:10029000616420526571756573740D0A00436F6E59
:1002A00074656E742D547970653A20746578742F76
:1002B00068746D6C0D0A5757572D41757468656EDB
:1002C0007469636174653A20426173696320726581
:1002D000616C6D3D224F4853220D0A0D0A3C683176
:1002E0003E34303120556E617574686F72697A657D
:1002F000643C2F68313E00485454502F312E30203A
:1003000034303120417574686F72697A6174696F35
:100310006E2052657175697265640D0A00416363F0
:100320006573732D436F6E74726F6C2D416C6C6FBF
:10033000772D4F726967696E3A202A0D0A436F6EF6
:1003400074656E742D547970653A20004854545089
:100350002F312E3020323030204F4B0D0A004C6FA1
:10036000636174696F6E3A20005365727665723A04
:10037000205765626475696E6F2F312E370D0A0044
:10038000485454502F312E3020333033205365657C
:10039000204F746865720D0A003C2F6C6162656CB9
:1003A0003E3C2F6469763E00273E003E3C6C616215
:1003B000656C20666F723D2700206F6E636C696309
:1003C0006B3D2264697328292200206F6E636C697B
:1003D000636B3D22656E2829220027002720636871
:1003E00065636B65642000272076616C75653D2729
:1003F00000272069643D27003C64697620636C61B6
:1004000073733D277263273E3C696E707574207468
:100410007970653D27726164696F27206E616D6533
:100420003D27002052433A002D002C206C656E3A87
:10043000004461746120746F206E6F64653A20001F
:100440003A4F4B20003A003A004142434445464768
:1004500048494A4B4C4D4E4F5051525354555657A4
:1004600058595A6162636465666768696A6B6C6D46
:100470006E6F707172737475767778797A30313205
:10048000333435363738392B2F00206E6578745F5A
:100490006F6E3A2000205F746D70743A2000206EF9
:1004A0006578745F6F6E3A2000205F6164643A2063
:1004B00000506572696F64232000205F6164643AB4
:1004C0002000205F6461793A20007E002054696D2D
:1004D000653A200020546F6461793A200043414C12
:1004E00023200070656E64696E670061726D6564DB
:1004F0005F686F6D650061726D65645F61776179DA
:10050000005361747572646179004672696461793F
:10051000005468757273646179005765646E657321
:100520006461790054756573646179004D6F6E6420
:1005300061790053756E6461790033052C052405DB
:100540001A0511050A05010566756E6374696F6EFB
:1005500020656E28297B666F722876617220693D5E
:10056000303B693C782E6C656E6774683B692B2B59
:10057000297B785B695D2E64697361626C65643D9B
:10058000747275653B7D666F722876617220693D75
:10059000303B693C792E6C656E6774683B692B2B28
:1005A000297B795B695D2E64697361626C65643D6A
:1005B00066616C73653B7D7D66756E6374696F6E95
:1005C0002064697328297B666F72287661722069BE
:1005D0003D303B693C782E6C656E6774683B692BD7
:1005E0002B297B785B695D2E64697361626C65643D
:1005F0003D66616C73653B7D666F72287661722023
:10060000693D303B693C792E6C656E6774683B6967
:100610002B2B297B795B695D2E64697361626C6544
:10062000643D747275653B7D7D3C2F7363726970A8
:10063000743E0A003C7363726970743E7661722086
:10064000783D646F63756D656E742E717565727932
:1006500053656C6563746F72416C6C282223702C37
:10066000236C302C236C312C236C322C236C3322E2
:10067000293B76617220793D646F63756D656E7498
:100680002E717565727953656C6563746F72416C18
:100690006C28222344302C2344312C2345302C2336
:1006A00045312C2346302C2346312C2347302C2334
:1006B00047312C2348302C2348312C2349302C231C
:1006C00049312C234A302C234A3122293B00436FE5
:1006D0006E7374616E740064617928732900686FA9
:1006E0007572287329003C64697620636C617373AA
:1006F0003D27726D62273E00696E74657276616C8B
:10070000005374617274003C2F6469763E003C644F
:10071000697620636C6173733D27726D6C273E00B0
:100720003C73656C656374206F6E6368616E6765AA
:100730003D27746869732E666F726D2E7375626DD6
:100740006974282927206E616D653D2700202D20C2
:10075000006E6F6E650043616C656E646172003C93
:100760006920636C6173733D2766612066612D6249
:10077000616E273E3C2F693E003C6920636C6173CB
:10078000733D2766612066612D636865636B273E54
:100790003C2F693E00537461747573006164647228
:1007A00065737300546F004173632E0052756E00C1
:1007B000506572696F640054696D6500537500532C
:1007C00061004672005468005765005475004D6F13
:1007D0000054797065003C7461626C653E3C7472D3
:1007E0003E3C74683E233C2F74683E3C74683E0077
:1007F00054696D657200446563004E6F76004F6307
:10080000740053657000417567004A756C004A7545
:100810006E004D617900417072004D617200466555
:1008200062004A616E00466F7572746800546869B0
:100830007264005365636F6E64004669727374007E
:100840004C6173740022081E081A08160812080E5C
:10085000080A0806080208FE07FA07F60740083AE1
:100860000833082D0826083C696E70757420747969
:1008700070653D277375626D697427206E616D65C3
:100880003D2772272076616C75653D27526573653B
:100890007420746F2064656661756C74272F3E0048
:1008A0003C696E70757420747970653D277375624C
:1008B0006D697427206E616D653D276C2720766118
:1008C0006C75653D274C6F6164206C617374272FD4
:1008D0003E003C696E70757420747970653D2773B5
:1008E00075626D697427206E616D653D2754272000
:1008F00076616C75653D27476574204E54502074B1
:10090000696D65272F3E005369676E616C003C6915
:1009100020636C6173733D2766612066612D686F8B
:100920006D65273E3C2F693E00436F6E6E656374B4
:100930006564006D6F64656D004661696C65640097
:1009400061636B6E6F776C6564676564004E6F748E
:100950000053656E74007061636B6574730052655B
:100960006365697665640038363800393135003C96
:1009700064697620636C6173733D27726D273E0056
:100980004672657175656E637900526164696F00C6
:100990004E545000656E64006F6666736574006146
:1009A00074006F6600737461727400666C61670036
:1009B0004461796C6967687420736176696E670059
:1009C000506F77657220737570706C790055707414
:1009D000696D65003C7363726970743E7661722064
:1009E000783D646F63756D656E742E71756572798F
:1009F00053656C6563746F72416C6C282223585880
:100A000022293B76617220793D646F63756D656E56
:100A1000742E717565727953656C6563746F72417C
:100A20006C6C28222346302C2346312C2343302C57
:100A30002343312C236D302C236D312C236D322C2C
:100A400023722C236C302C236C312C236C322C23FE
:100A50006C332C23742C23632C236622293B004EF9
:100A60006F0059657300636F6E7374616E74007606
:100A7000616C7565006F6E63650050617373004C47
:100A80006F6767696E67004879737465726573692B
:100A9000730056616C75650053796D626F6C00412F
:100AA000646472657373004D61736B3A200047573D
:100AB00020203A2000495020203A2000444843504A
:100AC0003A20005374617274003C2F6469763E3C96
:100AD0002F6469763E3C2F626F64793E3C2F6874C8
:100AE0006D6C3E003C2F666F726D3E003C696E700F
:100AF000757420747970653D277375626D6974270C
:100B0000206E616D653D2765272076616C75653DBA
:100B1000275361766520616C6C272F3E003C696E1F
:100B200070757420747970653D277375626D697492
:100B300027206E616D653D2741272076616C7565C4
:100B40003D274170706C79272F3E004261747465B7
:100B5000727900506F77657200436F6E66696775D2
:100B6000726174696F6E005175657565004D6F6EC9
:100B700069746F72696E6700556E646566696E654B
:100B800064003C74723E3C74643E003C2F74683ECA
:100B90003C74723E005061676500534D53003C2F1A
:100BA00074683E3C74683E004E616D65003C746143
:100BB000626C653E3C74723E3C74683E003C2F742F
:100BC00061626C653E003C2F74643E3C2F74723E43
:100BD000004F70656E006D696E757465287329002D
:100BE0004175746F0064656C61790041726D0073CA
:100BF00065636F6E64287329003C2F73656C6563B1
:100C0000743E003C2F6F7074696F6E3E0027207336
:100C1000656C65637465643E003C6F7074696F6EEB
:100C20002076616C75653D27003C73656C65637467
:100C3000206E616D653D270074696D6500456D61CD
:100C4000696C0070617373776F7264003C2F746419
:100C50003E3C2F74723E3C74723E3C74643E003CD9
:100C60002F74643E3C74643E0075736572003C747E
:100C700061626C653E3C74723E3C74643E002720A9
:100C80006D6574686F643D27706F7374273E003C18
:100C9000666F726D20616374696F6E3D27003C2F33
:100CA00068313E00736574757000476C6F62616CEB
:100CB000003C68313E005265672E207468726561A1
:100CC000642073746172746564005765622074688F
:100CD0007265616420737461727465640044656256
:100CE0007567207374617274656400005573657272
:100CF0002D6167656E743A202A0D0A446973616C30
:100D00006C6F773A202F0D0A001F1C1F1E1F1E1F1D
:100D10001F1E1F1E1F20002E3230002E000000203C
:100D200000230026002900000000010200090A003B
:100D3000000000040308070000000000000000009D
:100D400000000000000000636F6E74616374006E49
:100D5000756D6265720050686F6E6500616C6C0045
:100D60004E756D62657200436F6E74616374003C12
:100D7000696E70757420747970653D277375626D46
:100D8000697427206E616D653D2752272076616C5E
:100D900075653D2752657265676973746572272FA3
:100DA0003E002070706D00205600206D4261720080
:100DB00020250020C2B0430046756E6374696F6ED3
:100DC000004D657373616765004C617374003C6925
:100DD0006E70757420747970653D277375626D69E6
:100DE0007427206E616D653D2770272076616C75D4
:100DF000653D273C3C272F3E3C696E70757420741E
:100E00007970653D277375626D697427206E616D19
:100E1000653D276E272076616C75653D276E6F777F
:100E2000272F3E3C696E70757420747970653D277C
:100E30007375626D697427206E616D653D27662745
:100E40002076616C75653D273E3E272F3E0072651A
:100E50006A656374656400626F64790046726F6DE1
:100E6000006C6F67696E00737472656E67746800FA
:100E7000726F616D696E670064656E6965640073A9
:100E80006561726368696E670047534D00616C6C01
:100E90006F776564006D617463686564006E6F747C
:100EA000006572726F720072656769737472617443
:100EB000696F6E007265007265676973746572654B
:100EC0006400747269676765726564006572617356
:100ED0006564006E6574776F726B00756E6465662D
:100EE000696E656400666F72007265717565737412
:100EF00065640044617465003C696E7075742074AB
:100F00007970653D277375626D697427206E616D18
:100F1000653D2743272076616C75653D27436C65E9
:100F20006172206C6F67272F3E004C6F67002C208A
:100F3000686F7020002C206D61737465722000470B
:100F4000726F75702064697361726D206E6578745C
:100F500020002C20686F7020002C206D6173746558
:100F600072200047726F75702061726D206E657817
:100F70007420002C206E6F64653A0020636D643A23
:100F80000047726F75703A002052433A002C0020DF
:100F9000523A0020523A420020573A002C00436D4A
:100FA0006420746F206E6F64653A200020773A00E9
:100FB0002073746172746564002D002C20002C2055
:100FC0004C3A002C20433A003E5769726520413A62
:100FD000005253343835207468726561642073742C
:100FE0006172746564004C6F676765722074687223
:100FF000656164207374617274656400456D616934
:101000006C20456E64003A003000642C2000000023
:101010002200250028002B000000210024002700CA
:101020002A0002020202020202020404040404046E
:10103000040403030303030303030101010101018A
:101040000101010204081020408001020408102060
:101050004080010204081020408001020408102092
:101060004080273E00272069643D270027207661C5
:101070006C75653D27003C696E70757420747970DD
:10108000653D277465787427206D61786C656E679F
:1010900074683D2733272073697A653D27332720FD
:1010A0006E616D653D27003C696E707574207479C2
:1010B00070653D277465787427206E616D653D27E6
:1010C000002D736D732065332D002D736D732065B6
:1010D0006C2D002D736D732065322D002D736D7393
:1010E0002065312D00416C65727420656E64004F7F
:1010F0004B002E005375626A6563743A20002C2001
:1011000000546F3A200046726F6D3A2000444154FB
:1011100041003E005243505420544F3A3C003E00A0
:101120004D41494C2046524F4D3A3C006175746820
:10113000206C6F67696E0045484C4F00456D6169D2
:101140006C20005061676520656E643A2000506134
:10115000676520626567696E3A2000534D532073BE
:10116000656E743A2000534D5320626567696E3A8C
:1011700020003A2000416C6572742000416C657259
:10118000742074687265616420737461727465643C
:101190000044697361726D65640041726D6564003D
:1011A0003A00616374697661746564006465005433
:1011B0007269676765720066756C6C00717565753C
:1011C0006500526567697374726174696F6E004E71
:1011D0006F646500416C65727400416C61726D00F2
:1011E00061726D6564006175746F0064697361722A
:1011F0006D656400756E6B6E6F776E006B65790060
:1012000041757468656E7469636174696F6E006FAF
:1012100070656E0074616D70657200616C61726DF5
:101220000065640074726967676572005A6F6E6565
:1012300000414C41524D2021212100737461727490
:101240006564006D6F6E69746F72696E67007265B8
:10125000736574006C6F61646564006469736162D6
:101260006C65640073797374656D002C2000736184
:1012700076656400636F6E66696775726174696F25
:101280006E00706F776572004F4B006C6F7700696E
:101290007300626174746572790053797374656D5B
:1012A0000047617300545820506F77657200466C98
:1012B0006F617400416E616C6F67004469676974A7
:1012C000616C00566F6C7461676500507265737372
:1012D0007572650048756D69646974790054656D4F
:1012E00070657261747572650069427574746F6EB1
:1012F000003C2F756C3E3C2F6469763E3C646976F9
:1013000020636C6173733D276D62273E003C2F6143
:101310003E3C2F6C693E0064273E44656275670061
:101320006C273E4C6F67006D273E4E6574776F7279
:101330006B0069273E54696D6572730074273E54D3
:10134000726967676572730073273E4E6F646573D9
:101350000063273E436F6E7461637473006B273EB6
:101360004B6579730067273E47726F757073007A1B
:10137000273E5A6F6E65730072273E476C6F62613D
:101380006C003C2F613E3C2F6C693E3C6C693E3CDE
:101390006120002F273E486F6D6500687265663DCD
:1013A0002700636C6173733D2761637469766527F9
:1013B00020003C6C693E3C612000223E3C64697622
:1013C00020636C6173733D27777270273E3C6469BC
:1013D0007620636C6173733D277362273E3C6469BA
:1013E0007620636C6173733D277474273E4F4853B6
:1013F00020312E372E362E333C2F6469763E3C75D5
:101400006C20636C6173733D276E6176273E0064C8
:101410006973282900656E2829003C21444F4354F4
:101420005950452068746D6C3E3C68746D6C203E6C
:101430003C686561643E3C6D6574612063686172FF
:101440007365743D225554462D38223E3C746974B0
:101450006C653E4F70656E20686F6D6520736563C7
:1014600075726974793C2F7469746C653E3C737451
:10147000796C6520747970653D22746578742F638A
:101480007373223E0A40696D706F72742075726CBE
:101490002822687474703A2F2F6E6574646E612E02
:1014A000626F6F74737472617063646E2E636F6DBC
:1014B0002F666F6E742D617765736F6D652F342E97
:1014C000372E302F6373732F666F6E742D617765BF
:1014D000736F6D652E63737322293B0A2A7B6D61DE
:1014E0007267696E3A303B70616464696E673A3066
:1014F0007D0A2A2C202A3A6265666F72652C202AA2
:101500003A61667465727B626F782D73697A696E71
:10151000673A626F726465722D626F787D0A6874D3
:101520006D6C2C20626F64797B6865696768743ABA
:10153000313030257D0A626F64797B666F6E743A54
:10154000313270782F312047656F726769612C20C6
:1015500073616E732D73657269663B636F6C6F7236
:101560003A233333333B6261636B67726F756E642A
:101570003A233333337D0A2E7772707B646973703C
:101580006C61793A666C65783B6D696E2D6865694A
:101590006768743A313030257D0A2E73627B706F34
:1015A000736974696F6E3A6162736F6C7574653BD1
:1015B00077696474683A31363070787D0A2E6D62CE
:1015C0007B666C65783A313B70616464696E673A3A
:1015D000313070782031307078203170782032309E
:1015E00070783B3B6261636B67726F756E643A2320
:1015F0006565653B626F782D736861646F773A301B
:1016000020302035707820626C61636B3B747261AE
:101610006E73666F726D3A7472616E736C6174652D
:1016200033642831363070782C302C30297D0A2EE6
:1016300074747B666F6E742D73697A653A3232709A
:10164000783B6C696E652D6865696768743A3530FA
:1016500070783B746578742D616C69676E3A636568
:101660006E7465723B636F6C6F723A236565653BA0
:101670006261636B67726F756E643A233232327DDA
:101680000A2E6E6176206C6920617B706F736974BD
:10169000696F6E3A72656C61746976653B646973F3
:1016A000706C61793A626C6F636B3B706164646902
:1016B0006E673A3135707820313570782031357069
:1016C0007820353070783B636F6C6F723A236565B4
:1016D000653B626F726465722D626F74746F6D3AF0
:1016E00031707820736F6C696420233232327D0A46
:1016F0002E6E6176206C6920613A6265666F726554
:101700007B666F6E743A3134707820666F6E7461E8
:101710007765736F6D653B706F736974696F6E3A4F
:101720006162736F6C7574653B746F703A313470BD
:10173000783B6C6566743A323070787D0A2E6E6143
:1017400076206C693A6E74682D6368696C64283120
:101750002920613A6265666F72657B636F6E74659E
:101760006E743A275C66303135277D2E6E617620A7
:101770006C693A6E74682D6368696C64283229203C
:10178000613A6265666F72657B636F6E74656E74D5
:101790003A275C66303835277D2E6E6176206C697D
:1017A0003A6E74682D6368696C6428332920613A45
:1017B0006265666F72657B636F6E74656E743A27DF
:1017C0005C66303936277D2E6E6176206C693A6E04
:1017D00074682D6368696C6428342920613A6265F5
:1017E000666F72657B636F6E74656E743A275C66B4
:1017F000323464277D2E6E6176206C693A6E74688F
:101800002D6368696C6428352920613A6265666FCA
:1018100072657B636F6E74656E743A275C663038F0
:1018200034277D2E6E6176206C693A6E74682D6364
:1018300068696C6428362920613A6265666F726552
:101840007B636F6E74656E743A275C6632626327E1
:101850007D2E6E6176206C693A6E74682D636869BE
:101860006C6428372920613A6265666F72657B6314
:101870006F6E74656E743A275C66316530277D2E15
:101880006E6176206C693A6E74682D6368696C6469
:1018900028382920613A6265666F72657B636F6ED6
:1018A00074656E743A275C66303634277D2E6E611F
:1018B00076206C693A6E74682D6368696C642839A7
:1018C0002920613A6265666F72657B636F6E74652D
:1018D0006E743A275C66303137277D2E6E61762034
:1018E0006C693A6E74682D6368696C6428313029BC
:1018F00020613A6265666F72657B636F6E74656EB8
:10190000743A275C66306538277D2E6E6176206CD0
:10191000693A6E74682D6368696C642831312920D6
:10192000613A6265666F72657B636F6E74656E7433
:101930003A275C66313563277D2E6E6176206C69AF
:101940003A6E74682D6368696C64283132292061AD
:101950003A6265666F72657B636F6E74656E743A2A
:10196000275C66313838277D2E6E6176206C6920C1
:10197000613A686F7665727B6261636B67726F75DF
:101980006E643A233434347D0A2E6E6176206C699D
:1019900020612E6163746976657B626F782D736850
:1019A00061646F773A696E736574203570782030A2
:1019B000203020233562352C696E736574203670B3
:1019C000782030203020233232323B6261636B67F3
:1019D000726F756E643A233434347D0A696E7075A3
:1019E000742C2073656C6563747B637572736F729E
:1019F0003A706F696E7465723B6865696768743ABE
:101A0000323570783B626F726465723A307078205C
:101A10006E6F6E653B6F75746C696E653A30707889
:101A2000206E6F6E653B626F782D736861646F77AF
:101A30003A30707820317078203270782072676286
:101A40006128302C302C302C2E32293B706164649C
:101A5000696E673A307078203570783B6261636BED
:101A600067726F756E643A236666667D0A696E708A
:101A700075745B747970653D277375626D69742741
:101A80005D7B6D617267696E3A30707820313070BD
:101A9000782031307078203070787D0A68317B6D25
:101AA000617267696E3A3070782030203570783B0B
:101AB000666F6E742D73697A653A323870783B7050
:101AC000616464696E673A313070787D0A68327B90
:101AD000666F6E742D73697A653A313870783B663B
:101AE0006F6E742D7765696768743A3430303B6384
:101AF0006F6C6F723A233939397D0A7461626C6593
:101B00007B6D617267696E3A3020302031307078B9
:101B10003B626F726465722D636F6C6C617073658C
:101B20003A636F6C6C617073653B626F726465726F
:101B30003A31707820736F6C696420236262623B73
:101B40006261636B67726F756E642D636F6C6F7229
:101B50003A236666667D74682C74647B7061646485
:101B6000696E673A3870783B626F726465722D7285
:101B7000696768743A31707820736F6C69642023E8
:101B80006262627D74687B666F6E742D77656967CB
:101B900068743A3630303B6261636B67726F756EA2
:101BA000643A236464647D74723A6E74682D636869
:101BB000696C64286576656E297B6261636B677208
:101BC0006F756E643A236565657D613A6C696E6B0D
:101BD0007B746578742D6465636F726174696F6E70
:101BE0003A6E6F6E657D0A696E7075743A646973DA
:101BF00061626C65647B6261636B67726F756E6452
:101C00003A236565653B7D0A2E726D2C2E726D6CD4
:101C10002C2E726D627B646973706C61793A666CAC
:101C200065783B6865696768743A323570783B6DF2
:101C3000617267696E3A303B6261636B67726F75A0
:101C40006E643A236666663B626F782D73686164E2
:101C50006F773A3020317078203270782072676266
:101C60006128302C302C302C2E32293B6F76657257
:101C7000666C6F773A68696464656E7D0A2E726D72
:101C80007B77696474683A383070783B7D0A2E72CD
:101C90006D6C7B77696474683A31363070783B7D5F
:101CA0000A2E726D627B77696474683A33323070E1
:101CB000783B7D0A2E72637B666C65783A317D0ACB
:101CC0002E726320696E7075747B706F73697469AE
:101CD0006F6E3A6162736F6C7574653B6F706163B0
:101CE0006974793A307D0A2E7263206C6162656C8A
:101CF0007B646973706C61793A626C6F636B3B688B
:101D000065696768743A323570783B6C696E652D29
:101D10006865696768743A323570783B74657874C1
:101D20002D616C69676E3A63656E7465723B6375AD
:101D300072736F723A706F696E7465727D0A2E727B
:101D400063206C6162656C3A686F7665727B626174
:101D5000636B67726F756E643A236565657D0A2EE5
:101D6000726320696E7075743A636865636B65644D
:101D70007E6C6162656C7B636F6C6F723A23666622
:101D8000663B6261636B67726F756E643A2335629E
:101D9000357D0A2E726320696E7075743A646973BA
:101DA00061626C65647E6C6162656C7B636F6C6F95
:101DB000723A233333333B6261636B67726F756EC4
:101DC000643A236565657D0A3C2F7374796C653EC2
:101DD0003C2F686561643E0A3C626F6479206F6ED7
:101DE0006C6F61643D22003C2F7072653E003C7058
:101DF00072653E004465627567003C696E7075747B
:101E000020747970653D277375626D697427206E43
:101E1000616D653D2744272076616C75653D2744DB
:101E2000697361726D272F3E003C6920636C61739A
:101E3000733D2766612066612D62656C6C273E3CB0
:101E40002F693E004F55542032004F555420310029
:101E50003C2F62723E0054616D706572003C6920D7
:101E6000636C6173733D2766612066612D616464F4
:101E7000726573732D636172642D6F273E3C2F6909
:101E80003E003C6920636C6173733D276661206688
:101E9000612D73686172652D616C74273E3C2F69FA
:101EA0003E003C6920636C6173733D276661206668
:101EB000612D6C6F636B273E3C2F693E003C6920AF
:101EC000636C6173733D2766612066612D73717564
:101ED0006172652D6F273E3C2F693E004469736136
:101EE000726D003A2000756E6B6E6F776E00204346
:101EF0006D643A002D534D5320636F6D6D616E64B8
:101F00003A2000204F4B002D534D532066726F6DC9
:101F10003A20003C002D47534D206C656E3A20005E
:101F20002C204F4B002C2073746174653A20002DD7
:101F30004D5154542E20646F776E0053657276694C
:101F4000636520746872656164207374617274657E
:101F50006400496E707574004F6E004F66660064D1
:101F6000697361726D0061726D00737461746500F4
:101F700047726F7570002078200033003200310006
:101F800030003C6920636C6173733D276661206695
:101F9000612D7370696E6E65722066612D70756C4F
:101FA0007365273E3C2F693E006469676974616C04
:101FB00000616E616C6F67006C6F63616C007265CD
:101FC0006D6F74650044656C6179006173005A6FD0
:101FD0006E652074687265616420737461727465E3
:101FE000640054696D65207468726561642073745F
:101FF000617274656400706F7274007375627363EC
:1020000072696265007075626C6973680053656E11
:10201000736F72003C6920636C6173733D27666166
:102020002066612D7175657374696F6E273E3C2F54
:10203000693E00756E617574686F72697A656400D7
:1020400063726564656E7469616C7300756E617648
:1020500061696C61626C6500636C69656E742049CE
:10206000440070726F746F636F6C0062616400662D
:1020700061696C6564006C6F7374006F75740063E4
:102080006F6E6E656374696F6E004D515454004DF0
:1020900061736B0047617465776179004950004E48
:1020A0006574776F726B004B657900525353493AF0
:1020B000002D002C002C4461746120003E526164AC
:1020C000696F20413A00526164696F2074687265DB
:1020D000616420737461727465640053656E736F1C
:1020E00072207468726561642073746172746564CF
:1020F000000036C611241FBECFEFD0E4DEBFCDBF37
:1021000015E0A0E0B1E0EAECF8EA01E00BBF02C0A4
:1021100007900D92AC35B107D9F72BE3ACE5B5E0EC
:1021200001C01D92A63EB207E1F710E1CAE7D0E177
:1021300004C02197FE010E94D5D3C937D107C9F742
:102140000E94E8BE0C9463D40C940000DC01FB01F7
:102150008081869586958C938081837091819295FC
:102160009F7020E1829F900D112411969C931197EE
:1021700091819F70990F990F22812295269526951E
:102180002370920F12969C93129782818F731396ED
:102190008C93089521E0FC018485883008F020E0CC
:1021A000822F0895CF92DF92EF92FF920F931F93A9
:1021B000CF93DF937C018A01EB016B01C40ED51E26
:1021C000CC15DD0551F06991D701ED91FC9101909D
:1021D000F081E02DC7010995F3CFC801DF91CF91C0
:1021E0001F910F91FF90EF90DF90CF90089580E0C6
:1021F0000895089580E090E00895CF93C82F10923D
:10220000001C68E271E080E09CE10E9420D468E05C
:1022100073E080E09CE10E9420D480E1C89FB0017F
:102220001124675B774C80E09CE10E9420D468E039
:1022300073E080E09CE1CF910C9420D4CF93DF93A6
:10224000EC01CA55DE4F388121E0230F2883FC01C1
:10225000E30FF11DE955FF4F60832F3F49F4BC01A7
:1022600069557F4F4FEF50E00A960E94BE43188297
:1022700081E090E0DF91CF9108952F923F924F92AD
:102280005F926F927F928F929F92AF92BF92CF9206
:10229000DF92EF92FF920F931F93CF93DF93162F4E
:1022A0009CE1E3E8FEE2ABEBBEE201900D929A9571
:1022B000E1F7C82FD0E02AE2829FC0011124FC017F
:1022C000E153F14E4F0180819E012F5F3F4F790115
:1022D00081FF18C16DED74E08DEA9EE10E944B58BC
:1022E0004AE050E0B7018DEA9EE10E94CD588BEBA9
:1022F0009EE20E946D5F20E831E541E050E00E94DF
:1023000098D2C901069667E070E00E94ADD3082F0D
:10231000182F64ED74E08DEA9EE10E944B584AE06C
:1023200050E0602F8DEA9EE10E941A5908E0C12C0E
:10233000D12C760140E8442E41E5542E6624639466
:10234000712C57E0252E312C540133E0A30EB11C23
:10235000F4018081918128E030E0211B310902C025
:10236000969587952A95E2F780FF4FC08BEB9EE20A
:102370000E946D5FA30192010E9498D2C901069646
:10238000B1010E94ADD3181366C06CEC74E08DEA05
:102390009EE10E944B588091BE2E6091BF2E70E04E
:1023A000FCE38F9F600D711D11244AE050E08DEA1F
:1023B0009EE10E94CD586AEC74E08DEA9EE10E9495
:1023C0004B58F5014081518160E070E02AE08DEAD0
:1023D0009EE10E9484582091BE2E8091BF2E90E0F5
:1023E000FCE32F9F800D911D1124F5012081318187
:1023F0002817390780F5C114D104E104F10459F517
:10240000C12CD12C7601C39405C0FFEFCF1ADF0A8F
:10241000EF0AFF0A1F5F173009F410E062EC74E066
:102420008DEA9EE10E944B584AE050E0612F8DEA10
:102430009EE10E941A59015009F08ACF8AE28C9FCE
:10244000F0018D9FF00D1124E153F14E118A128A93
:10245000138A148A63C16AEB74E08DEA9EE10E94DC
:102460004B582AE0B701A6018DEA9EE10E948458EC
:102470008BEB9EE20E946D5F2B013C014091BF2ED1
:102480008AE28C9FF0018D9FF00D1124E153F14EF3
:1024900023813481ACE3B0E00E94ECD22091C02EC5
:1024A0004B015C01821A9108A108B1082091BE2E4F
:1024B00030E0A0E1BEE00E94ECD2861A970AA80A9A
:1024C000B90A242F30E0ACE3B0E00E94ECD2861AC7
:1024D000970AA80AB90A840C951CA61CB71CA70168
:1024E000960160E871E581E090E00E9488D2DC010D
:1024F000CB01880D991DAA1DBB1D818B928BA38BCF
:10250000B48B0CC161EB74E08DEA9EE10E944B58E4
:102510004AE050E0B7018DEA9EE10E94CD58F401F7
:102520002181822F82958F7090E083709927A281FC
:102530008130910569F038F0029789F42A2F30E054
:10254000A0E1BEE009C0CA2ED12CE12CF12C10C0B4
:102550002A2F30E0ACE3B0E00E94ECD207C0B0E03C
:1025600020E831E541E050E00E94D9D26B017C01C6
:1025700069EA74E08DEA9EE10E944B582AE0B701B7
:10258000A6018DEA9EE10E948458C114D104E104A1
:10259000F10409F4C7C0112309F495C08BEB9EE246
:1025A0000E946D5F2B013C014091BF2E8AE28C9FFF
:1025B00080018D9F100D11240153114EF8012381CC
:1025C0003481ACE3B0E00E94ECD22091C02E4B01EC
:1025D0005C01821A9108A108B1082091BE2E30E05A
:1025E000A0E1BEE00E94ECD2861A970AA80AB90AB6
:1025F000242F30E0ACE3B0E00E94ECD2861A970AB8
:10260000A80AB90A480C591C6A1C7B1C418A528AC8
:10261000638A748A6EE974E08DEA9EE10E944B58E9
:10262000F80141895289638974892AE08DEA9EE123
:102630000E9484588BEB9EE20E946D5FF8018188B6
:102640009288A388B48886169706A806B90608F06B
:102650004EC08BEB9EE20E946D5FF80181889288EC
:10266000A388B488681979098A099B09A70196018A
:102670000E9498D249015A0165E974E08DEA9EE111
:102680000E944B582AE0B501A4018DEA9EE10E9408
:102690008458A50194012F5F3F4F4F4F5F4FC701F3
:1026A000B6010E9488D2F801C188D288E388F488F4
:1026B000DC01CB018C0D9D1DAE1DBF1D818B928B4E
:1026C000A38BB48B14C08AE28C9FF0018D9FF00D18
:1026D0001124E153F14E81899289A389B489C80EEE
:1026E000D91EEA1EFB1EC18AD28AE38AF48A6AE8EE
:1026F00074E08DEA9EE10E944B588AE28C9FF001C3
:102700008D9FF00D1124E153F14E41895289638967
:1027100074892AE08DEA9EE10E9484588DEA9EE148
:102720000E9470598AE28C9FF0018D9FF00D112458
:10273000E153F14EC188D288E388F488C58AD68AED
:10274000E78AF08E00811181C80184E0989F812D75
:1027500099271124A5818130910569F038F00297FD
:1027600089F42A2F30E0A0E1BEE009C0CA0ED11CD6
:10277000E11CF11C12C02A2F30E0ACE3B0E00E9453
:10278000ECD207C0B0E020E831E541E050E00E9423
:10279000D9D2C60ED71EE81EF91EC58AD68AE78A88
:1027A000F08E8AE28C9FF0018D9FF00D1124E15391
:1027B000F14E1D7F11830083DF91CF911F910F9107
:1027C000FF90EF90DF90CF90BF90AF909F908F9051
:1027D0007F906F905F904F903F902F900895CF9291
:1027E000DF92EF92FF920F931F93CF93DF93CDB7BA
:1027F000DEB727970FB6F894DEBF0FBECDBF7C01C2
:102800006B0110E090E0042F060F0C1559F181E0E8
:10281000890FF60121916F01E5E0F0E0EC0FFD1F5B
:10282000E90FF11D20838330D9F4BE016B5F7F4F28
:10283000CE0101960E94A610DE01119684E0810F60
:1028400091E0910FED91F0E0E75BFB4F4491970130
:10285000210F311DF9014083192F9813F1CF80E02A
:10286000982FD3CF012FD92E9923C9F1933048F453
:10287000E5E0F0E0EC0FFD1FE90FF11D10829F5F16
:10288000F5CFBE016B5F7F4FCE0101960E94A6106F
:102890002D2D30E0812F801B90E0281739079CF008
:1028A00041E0410FE1E0F0E0EC0FFD1FE80FF91F00
:1028B000E081F0E0E75BFB4FE491D701A10FB11D90
:1028C000EC93142FE7CFD11A9DE38D2D810F833028
:1028D00030F4F701E10FF11D90831F5FF6CFF70190
:1028E000E10FF11D108227960FB6F894DEBF0FBEE0
:1028F000CDBFDF91CF911F910F91FF90EF90DF90AF
:10290000CF9008954F925F926F927F92AF92BF9255
:10291000CF92DF92EF92FF920F931F93CF93DF93AB
:10292000CDB7DEB76D970FB6F894DEBF0FBECDBF43
:102930006C01F42E41110AC00D3018F40F5F11E044
:1029400006C06F5F7F4F11E001E001C0142F603DB2
:1029500037E0730710F0605D7740F6016083018314
:1029600081E08283E38214821582C6012D8F0E944A
:102970006D5F2B013C01C6010E946D5FE12FF0E00D
:10298000319737E03E9F50013F9FB00C11242D8DB1
:10299000022F10E020E831E541E050E00E9498D29B
:1029A000C9010696E7E0F0E0BF010E94ADD39801AF
:1029B000281B390BC9010796BF010E94C1D3D5015D
:1029C000A80FB91F20E831E541E050E00E94E4D2B1
:1029D000AB01BC01440D551D661D771DC6010E944B
:1029E000005FF11015C0C6010E946D5FAB01BC0114
:1029F00040585A4369407109CE0101960E94A35F75
:102A00008CE1FE013196D60101900D928A95E1F795
:102A1000C6016D960FB6F894DEBF0FBECDBFDF9135
:102A2000CF911F910F91FF90EF90DF90CF90BF90CB
:102A3000AF907F906F905F904F9008951F93CF93CA
:102A4000DF93182FC5E085E090E00E94E289612FB6
:102A50008AED9EE20E94097CD82F811107C06EE2A8
:102A60008DEA9EE10E944458C15069F78D2FDF9195
:102A7000CF911F910895DF92EF92FF920F931F93D2
:102A8000CF93DF93C82FF62EE72ED42F61E374E0A7
:102A90008DEA9EE10E944B58C03158F06C2F70E0D7
:102AA0006F5071094AE050E08DEA9EE10E94CD58D6
:102AB00007C04AE050E06C2F8DEA9EE10E941A594F
:102AC0006AE274E08DEA9EE10E944B584AE050E0D1
:102AD0006D2F8DEA9EE10E941A59DF2C0F2D1E2DBD
:102AE000802F8D198D1780F468E274E08DEA9EE1E5
:102AF0000E944B58F80161918F0140E150E08DEA4E
:102B00009EE10E941A59ECCFC031E8F4C093D01C6A
:102B10001092D21CD093D11C4D2F50E06F2D7E2DE2
:102B20008EE89CE10E94FED3D5E06AE38DEA9EE147
:102B30000E9444580E94996FC82FD15009F466C072
:102B4000882399F363C060E070E084E191E00E9423
:102B5000BB8915E0CF506AE38DEA9EE10E9444589C
:102B600001E02D2F4F2D5E2D6C2F8AED9EE20E94ED
:102B70008E3B8091891C90918A1CA0918B1CB091F6
:102B80008C1C0196A11DB11D8093891C90938A1CF9
:102B9000A0938B1CB0938C1C8C2F0E941E1581114E
:102BA00014C04091851C5091861C6091871C7091C7
:102BB000881C4F5F5F4F6F4F7F4F4093851C509332
:102BC000861C6093871C7093881C115021F0882309
:102BD00011F2C1E017C0C82F811114C08091811C6F
:102BE0009091821CA091831CB091841C0196A11D20
:102BF000B11D8093811C9093821CA093831CB09381
:102C0000841CC12F84E191E00E94B48963E274E0E6
:102C10008DEA9EE10E944B588C2F0E94846F8C2F6E
:102C2000DF91CF911F910F91FF90EF90DF9008956A
:102C3000CF92DF92EF92FF920F931F93CF93DF9388
:102C4000CDB7DEB760970FB6F894DEBF0FBECDBF2D
:102C50008C017A014AE050E0CE0101960E9454D4E2
:102C600097012A30310510F029E030E0E1E0F0E092
:102C7000EC0FFD1FE20FF31F108268E073E0C80144
:102C80000E94E2CC68E073E080E090E00E94E2CC39
:102C900068E073E080E090E00E94E2CC8C01009755
:102CA00009F4C0C0BC018DEA9EE10E94985967E416
:102CB00074E08DEA9EE10E944B5862E57FE1C80115
:102CC0000E94D9CC892B09F0ADC08091863981FF53
:102CD000A9C068E073E080E090E00E94E2CC6C0163
:102CE000BC018DEA9EE10E94985965E474E08DEA8A
:102CF0009EE10E944B58C114D10409F493C0F12CF9
:102D00002FE1E22E8091801CF81608F08BC0EF9C1A
:102D100080011124B801675C7A4DC6010E9436D447
:102D2000882311F0F394EECF68E073E080E090E048
:102D30000E94E2CC009709F475C0DC018C9190ED03
:102D4000F92EF80E4AE050E06F2D8DEA9EE10E94C8
:102D50001A5980E02FE1F801E55DFA4D9091801C51
:102D6000891708F05FC0289F80011124055D1A4D66
:102D7000D8013C919081391353C01196DC90B9E48D
:102D8000DB124EC0D80113969C9113979F1148C037
:102D900014969C9190FF44C060E474E08DEA9EE13B
:102DA0000E948659CE0101960E94C1CC9B01AB01C5
:102DB000BC014093913B5093923B6093933B709343
:102DC000943BDB86FC862D878091923B8E87809199
:102DD000933B8F878091943B888B46E0BE01655F73
:102DE0007F4FF80180810E943B158823D9F083E84A
:102DF0009EE20E946D5FD8011A966D937D938D932C
:102E00009C931D978091913B9091923BA091933B15
:102E1000B091943BF80186839783A087B18702C065
:102E20008F5F9CCF60960FB6F894DEBF0FBECDBF0C
:102E3000DF91CF911F910F91FF90EF90DF90CF9096
:102E40000895CF92DF92EF92FF920F931F93CF934B
:102E50008C01C62F6FEF7FEF85E49EE20E94BB8955
:102E6000892B09F04FC02091472E3091482E7901CF
:102E700084E0EE0CFF1C8A95E1F7C7018D54924D5A
:102E80006C012830310518F42F5F3F4F02C020E05D
:102E900030E03093482E2093472EC114D10491F195
:102EA00080E1F60111928A95E9F7C11107C0F80196
:102EB00001900020E9F73197CE2FC01B83E89EE2F6
:102EC0000E946D5F6093551E7093561E8093571E2F
:102ED0009093581EF60160837183828393834C2FF5
:102EE00050E0B801C7018854924D0E9407D483E492
:102EF0009EE2CF911F910F91FF90EF90DF90CF90C6
:102F00000C94B489CF911F910F91FF90EF90DF90B7
:102F1000CF900895CF93DF93D82FC62F0E944F6F85
:102F2000882309F447C08091863983FF43C08D2FE1
:102F30000E94FD106AE67FE180E09CE10E94CECC19
:102F40001092F41BC83419F46BEE74E006C0C93457
:102F50003CF5C134E9F466EF74E084EF9BE10E9434
:102F6000CECC60E070E081E191E00E94BB890E94DC
:102F70004A74811107C060E08AE093E00E94211743
:102F80001092961E81E191E0DF91CF910C94B4896B
:102F9000C43419F46BEE71E1E0CF6BED7EE0DDCF70
:102FA000C03519F463EE74E0D8CFC435B1F762ECE4
:102FB0007EE0D3CFDF91CF9108950F931F93CF93EE
:102FC000DF93082F0E944F6F882309F4B8C0C02FE9
:102FD000D0E08FE1089F80011124055D1A4DF801B2
:102FE0008481958187FFABC02091863920FFA7C0DF
:102FF000969587958F700E94FD10F8018181893424
:1030000019F462E57FE102C06DE070E280E09CE1CE
:103010000E94CECC68E073E080E09CE10E9420D466
:103020008FE18C9F80018D9F100D1124B801675C8A
:103030007A4D80E09CE10E9420D468E073E080E05B
:103040009CE10E9420D4F801E55DFA4DE2818E2FCB
:10305000EE0F990BAA0BBB0BFC01E154F109E8310F
:10306000F10510F5EA5BFF4F0C94D5D36DED72E1DD
:103070001DC064ED72E11AC06BEC72E117C062E52D
:103080007FE114C063EC72E111C06BEB72E10EC022
:1030900064EB72E10BC06EEA72E108C065EA72E1AE
:1030A00005C061EA72E102C068E77BE080E09CE174
:1030B0000E94CECC68E073E080E09CE10E9420D4C6
:1030C0002FE12C9FC0012D9F900D1124EC01C55DB7
:1030D000DA4D8B814AE064EF7BE190E00E940DCDF8
:1030E00064EF7BE180E09CE10E9420D42A816E8124
:1030F0007F818885998504EF1BE1243419F420E051
:1031000041E002C022E046E00E94E4C960E070E0D5
:1031100081E191E00E94BB890E944A74811107C03D
:1031200060E08AE093E00E9421171092961E81E1F0
:1031300091E0DF91CF911F910F910C94B489DF91B1
:10314000CF911F910F910895CF93C82F41EF59E070
:1031500060E070E087E591E30E9466D24CEC51E0BC
:1031600061EF79E083E790E20E9466D244EA51E0A1
:103170006DEB7BE08FEC9EE10E9466D2CC2331F0B8
:1031800060E08EE093E0CF910C942117CF910895E9
:103190008F929F92AF92BF92EF92FF920F931F93E5
:1031A000CF93DF93EC018E89883008F589AD8111CA
:1031B0003EC08E01065F1F4F0E94625A4B015C01A8
:1031C00028EE820E23E0921EA11CB11C7E018FE628
:1031D000E80EF11CC8010E942B45882341F0F7013D
:1031E0008081882339F08AAD9BAD892B19F48FEF4C
:1031F0009FEF23C0C8010E94D1429C01019659F063
:10320000F7018081882329F08AAD9BAD01979BAFA0
:103210008AAFC90112C00E94625A86169706A80694
:10322000B906C0F619AEC8010E944E45E0CF8150E4
:1032300089AFC80FD11D898D90E0DF91CF911F918B
:103240000F91FF90EF90BF90AF909F908F90089557
:103250006F927F928F929F92AF92BF92CF92DF92A6
:10326000EF92FF920F931F93CF93DF9300D01F92A3
:10327000CDB7DEB74C016B017A01590160E070E017
:10328000C6010E9419D4A80160E070E0C5010E9447
:1032900019D421E0E21AF10801501109712CC4017E
:1032A0000E94C8188F3FEFEF9E0709F44CC08B3285
:1032B000910559F18D33910509F440C0863291058D
:1032C00009F443C08532910511F5C4010E94C81864
:1032D0003C01C4010E94C818EFEF6E167E0621F073
:1032E0008F3FFFEF9F0711F480E030C019821A82F0
:1032F0001B8269828A8340E150E060E070E0CE0189
:1033000001960E9489CBCB0102C080E290E01E149E
:103310001F044CF4F6018083F1E0EF1AF108C601B6
:1033200001966C010DC01016110654F4F50180834E
:1033300001501109C50101965C0102C0E12CF12C7C
:1033400077247394ACCF872D01C081E00F900F904C
:103350000F90DF91CF911F910F91FF90EF90DF9031
:10336000CF90BF90AF909F908F907F906F90089577
:103370000F931F93CF93DF938C01FB016491EF01B7
:103380002196662351F0D801ED91FC910190F081D6
:10339000E02DC8010995FE01F1CFDF91CF911F917A
:1033A0000F910895AF92BF92CF92DF92EF920F9359
:1033B0001F93CF93DF93EC016B01142F590168EF3A
:1033C00073E00E94B819B601CE010E94985961EFCE
:1033D00073E0CE010E94B819B601CE010E9498593F
:1033E0004AE050E0612FCE010E941A5967EE73E067
:1033F000CE010E94B8194AE050E0612FCE010E9430
:103400001A59002319F06CED73E002C06AED73E005
:10341000CE010E94B819EE2051F0112319F06AEC88
:1034200073E002C069EB73E0CE010E94B8196BEA49
:1034300073E0CE010E94B819B601CE010E949859DE
:103440004AE050E0612FCE010E941A5968EA73E009
:10345000CE010E94B819B501CE010E94B81969E9E0
:1034600073E0CE01DF91CF911F910F91EF90DF902C
:10347000CF90BF90AF900C94B8190F931F93CF9338
:10348000DF93EC018B0160E873E00E94B81969E6F4
:1034900073E0CE010E94B8196EE573E0CE010E9480
:1034A000B819B801CE010E9498596CE074E0CE01C1
:1034B0000E9498596CE074E0CE01DF91CF911F918A
:1034C0000F910C949859EF92FF920F931F93CF9303
:1034D000DF93EC017B018A016CE473E00E94B81970
:1034E00069E673E0CE010E94B8196DE173E0CE0188
:1034F0000E94B819B701CE010E9498596CE074E09F
:10350000CE010E9498590115110521F0B801CE0194
:103510000E9498596CE074E0CE01DF91CF911F9129
:103520000F91FF90EF900C949859CF93DF93EC019B
:1035300067EF72E00E94B81969E673E0CE010E945D
:10354000B8196DE972E0CE01DF91CF910C94B819F2
:10355000CF93DF93EC0162E872E00E94B81969E64C
:1035600073E0CE010E94B8196DE472E0CE01DF91E4
:10357000CF910C94B8194F925F926F927F928F9275
:103580009F92AF92BF92CF92DF92EF92FF920F93F2
:103590001F93CF93DF9380EB90E09093583180930B
:1035A00057318AE08093593180E58093C03187E5B7
:1035B00091E3C9E4D9E39C0160E070E0ADE2BEE1D3
:1035C000F901E659FF4FA08331961082E953FA4F73
:1035D000A08331961082AB01495A5E4C8A010C5986
:1035E000174FF801A08331961082B993205F3F4FA7
:1035F000625E7F4F6C32F1E07F0711F7C5E7D7E3DA
:10360000A7E5B1E360E070E01FEF0EE12DE2F22EDE
:1036100020E030E0F901E65DFB4FEA0FFB1F10836D
:103620002F5F3F4F28303105A9F709939B01295A95
:103630003E4CF901E252FB4FF08231961082605FFE
:103640007F4F1996603421E0720711F7A6E1BBE3C2
:10365000E7E5F1E39F01912C5DE2852E6EE170E0DC
:10366000CEE14C2EC2E45C2E0EE110E4DEE1ED2E44
:10367000D0ECFD2E690146EFC41A4EEFD40AE601E4
:1036800088826901D5EFCD1ADEEFDD0AE6011882E6
:10369000DBE0D91530F048E0941648F4F682E58274
:1036A0000CC0CCE09C1206C05682458206C0168330
:1036B000058303C0768365831C929394205F3F4FFC
:1036C00032961196D2E39D12D5CFE9E2F8E320E0DD
:1036D00030E0CDE2DC01AE50B94FCC9311961C9294
:1036E000722E612CB22EB29440EFB422A12CB30101
:1036F0006A297B29619371932F5F3F4F4096203158
:10370000310541F710925B3110925A318DE280936E
:103710005539109256398AE0809368398093693917
:1037200080936A399FE790936B392BE537E03093AC
:103730006D3920936C39109286391092703910923D
:103740007139109272391092733910927639109241
:10375000773910927839109279399FEF90937C39AC
:1037600090937D3990937E3910927F3993EC9093AA
:10377000823991E79093833990E99093843999EC59
:103780009093853993E2909387391092883990937A
:103790009239109293399093EE3A1092EF3A9093B7
:1037A0000C3B10920D3B1092E73A1092E93A1092BE
:1037B000E83A1092EB3A1092EA3A1092ED3A1092EF
:1037C000EC3A1092173B1092183B8093193B83E020
:1037D00080931A3B2CE330E030931C3B20931B3B3F
:1037E00010921D3B10921E3B80931F3B82E0809302
:1037F000203B88E790E09093223B8093213BDF9130
:10380000CF911F910F91FF90EF90DF90CF90BF90DD
:10381000AF909F908F907F906F905F904F900895A2
:10382000FC011382128288EE93E0A0E0B0E0848372
:103830009583A683B78388E491E09183808380EEAB
:1038400092E097878687108A118A128A138A88E005
:10385000808F08952F923F924F925F926F927F9246
:103860008F929F92AF92BF92CF92DF92EF92FF9290
:103870000F931F93CF93DF93CDB7DEB763970FB648
:10388000F894DEBF0FBECDBF6C018B010E9477AFF5
:10389000882311F40C94E2260330110509F0D5C1F8
:1038A0002AE2F22E662463943CE3A32EB12C4CE36F
:1038B000E42E88248394912C01E110E09E012F5F77
:1038C0003F4F42E050E0BE016E5E7F4FC6010E9456
:1038D0002819782E8A89893609F4C7C0D4F481362C
:1038E00009F471C04CF482340CF4A1C18B340CF493
:1038F0006CC1803519F19BC1863609F430C1883618
:1039000009F495C0853609F092C181E00E94A4189F
:103910008EC18F3609F410C144F48D3609F467C0A6
:10392000FCF48C3609F4E4C082C1823769F1843733
:1039300009F428C1803709F07AC1BBC04AE050E0E1
:1039400060E070E0CE0101960E945ECA60935C0563
:1039500080915D05681709F46AC160935D0569C1CE
:1039600000915D05F09E8001112440E150E0BE0110
:103970006F5F7F4FC8018851914E0E9454D4F80167
:10398000E153F14E10A653C100915D0510E04AE0ED
:1039900050E060E070E0CE0101960E945ECAF09EA9
:1039A000F001F19EF00D1124E153F14E6583E09199
:1039B0005D05FE9EF0011124E153F14E85818111D8
:1039C00036C1658234C100915D0510E04AE050E0E7
:1039D00060E070E0CE0101960E945ECAF09EF001A8
:1039E000F19EF00D1124E153F14E61A720C14AE090
:1039F00050E060E070E0CE0101960E945ECA1B01BB
:103A00002C01E0915D05FE9EF0011124E153F14E81
:103A100083819481B5010E94ADD3E69EC001E79EEB
:103A2000900D1124280E391E3482238200C14AE0F1
:103A300050E060E070E0CE0101960E945ECAE09125
:103A40005D05FE9EF0011124E153F14EE69E9001CA
:103A5000E79E300D112483819481B5010E94ADD37E
:103A6000280F391F34832383E2C0898180538093D8
:103A70005C05E0915D05FE9ED0011124A153B14E7D
:103A80002D913C91119780FF02C0306401C03F7BB3
:103A90002D933C93FE9EF0011124E153F14E81FFE2
:103AA00004C0808191819068C0C0808191819F779E
:103AB000BCC000915D0510E04AE050E060E070E0BD
:103AC000CE0101960E945ECAF09EF001F19EF00DBB
:103AD0001124E153F14E6283E0915D05FE9EF001F9
:103AE0001124E153F14E82818111A1C062829FC0F5
:103AF0008981805380935C05E0915D05FE9ED00135
:103B00001124A153B14E2D913C91119780FF02C019
:103B1000306101C03F7E2D933C93FE9EF001112445
:103B2000E153F14E81FF04C08081918190627DC09C
:103B3000808191819F7D79C000915D0510E0CE016B
:103B400001960E94C1CCF09EF001F19EF00D11246F
:103B5000E153F14E668377838087918768C0009137
:103B60005D0510E0CE0101960E94C1CCF09EF001EF
:103B7000F19EF00D1124E153F14E62877387848723
:103B8000958755C04AE050E060E070E0CE010196B4
:103B90000E945ECA60935C05A0915D05FA9ED0010B
:103BA0001124A153B14E2FE1269FF0011124E55DB0
:103BB000FA4D80811E968C931E9782811F968C935E
:103BC0001F97838150968C9332C0398120915D0577
:103BD000082E000C990B3033B1F4F29E90011124A1
:103BE000F901E153F14E82549109D40102C0AA0FA8
:103BF000BB1F8A95E2F7CD01809590952081318198
:103C00008223932312C0F29E90011124F901E15303
:103C1000F14E82549109940102C0220F331F8A95FC
:103C2000E2F780819181822B932B918380837110A5
:103C300043CE61E080915D050E943D1162E173E039
:103C4000C6010E943D1A0C94E52640E050E065E173
:103C500073E0C6010E94631AE0915D05BAE2EB9F32
:103C6000F0011124E153F14E408151815695479561
:103C7000417069E0C6010E941F9661EB7CE0C601BD
:103C80000E94B81960EF77E0C6010E94B81960E29F
:103C9000C6010E94445864EA7CE0C6010E94B8193B
:103CA0006EE97CE0C6010E94B8196FE87CE0C601AD
:103CB0000E94B81962E173E0C6010E9498596EE74C
:103CC0007CE0C6010E94B81966ED77E0C6010E944B
:103CD000B81968EA7BE0C6010E94B8196EE97BE07A
:103CE000C6010E94B81968E57FE1C6010E94B819B3
:103CF0006EE97BE0C6010E94B81961ED77E0C6016C
:103D00000E94B8196EE97BE0C6010E94B8196EECFA
:103D100077E0C6010E94B8196EE97BE0C6010E94F7
:103D2000B8196BEC77E0C6010E94B8196EE97BE028
:103D3000C6010E94B81968EC77E0C6010E94B81964
:103D40006EE97BE0C6010E94B81965EC77E0C60118
:103D50000E94B8196EE97BE0C6010E94B81962ECB6
:103D600077E0C6010E94B8196EE97BE0C6010E94A7
:103D7000B8196FEB77E0C6010E94B8196EE97BE0D5
:103D8000C6010E94B8196CEB77E0C6010E94B81911
:103D90006EE97BE0C6010E94B81967EB77E0C601C7
:103DA0000E94B8196EE97BE0C6010E94B81960EB69
:103DB00077E0C6010E94B8196EE97BE0C6010E9457
:103DC000B8196CEA77E0C6010E94B81960E2C60132
:103DD0000E94445868E37CE0C6010E94B8196EE96D
:103DE0007BE0C6010E94B81967EA77E0C6010E942D
:103DF000B81960E2C6010E94445864E272E1C6014B
:103E00000E94B8196EE97BE0C6010E94B81968E506
:103E10007FE1C6010E94B81960E2C6010E944458C1
:103E200068E37CE0C6010E94B8196EE97BE0C60138
:103E30000E94B8196BE57FE1C6010E94B81960E2E3
:103E4000C6010E94445868E37CE0C6010E94B8198C
:103E50006EE97BE0C6010E94B81964EA77E0C6010A
:103E60000E94B81960E2C6010E9444586CE977E0EC
:103E7000C6010E94B8196EE97BE0C6010E94B8191C
:103E800068E57FE1C6010E94B8196EE97BE0C601D2
:103E90000E94B8196BE57FE1C6010E94B8196EE96E
:103EA0007BE0C6010E94B81965E977E0C6010E946F
:103EB000B8196BE87BE0C6010E94B8190FECE02E40
:103EC0000EE1F02E88EFA82E8EE1B82E812C912CD9
:103ED0009CE3692E712C62E87BE0C6010E94B81950
:103EE000EFEF8E1A9E0AB401C6010E9471576EE26E
:103EF000C6010E9444586FE57CE0C6010E94B819D3
:103F0000B701675E7F4FC6010E9498596FE57CE05C
:103F1000C6010E94B819D7018C9180FF03C069E7E0
:103F200077E002C06FE577E0C6010E94B8196FE53F
:103F30007CE0C6010E94B819F701808181FF03C0AF
:103F400066E577E002C060EB77E0C6010E94B81931
:103F50006FE57CE0C6010E94B819D7018C9181FF02
:103F600077C087FF03C069E777E002C06FE577E0BD
:103F7000C6010E94B8196FE57CE0C6010E94B8191D
:103F8000F701808186FF03C069E777E002C06FE533
:103F900077E0C6010E94B8196FE57CE0C6010E9477
:103FA000B819D7018C9185FF03C069E777E002C09B
:103FB0006FE577E0C6010E94B8196FE57CE0C601A5
:103FC0000E94B819F701808184FF03C069E777E098
:103FD00002C06FE577E0C6010E94B8196FE57CE08A
:103FE000C6010E94B819D7018C9183FF03C069E70D
:103FF00077E002C06FE577E0C6010E94B8196FE56F
:104000007CE0C6010E94B819F701808182FF03C0DD
:1040100069E777E002C06FE577E0C6010E94B81952
:104020006FE57CE0C6010E94B819D7018D919C9183
:1040300090FF03C069E777E002C06FE577E0C60153
:104040000E94B8196FE57CE0C6010E94B81908C04B
:1040500017E06FE57CE0C6010E94B8191150C9F75E
:10406000F70183819481B3010E94ADD360935C0515
:104070006A3020F460E3C6010E94445860915C05F8
:10408000C6010E947C576AE3C6010E944458D701CA
:1040900013968D919C911497B3010E94ADD3809398
:1040A0005C050A9720F460E3C6010E9444586091C1
:1040B0005C05C6010E947C576FE57CE0C6010E944A
:1040C000B819F701808181FD12C0F501B7976081B1
:1040D000C6010E947C5760E2C6010E944458D70185
:1040E00011966C9162956370C6010E94FD996FE50F
:1040F0007CE0C6010E94B819F501B4976081C60141
:104100000E947C5760E2C6010E944458F70160811A
:10411000718164E0769F612D77271124C6010E948A
:10412000FD996FE57CE0C6010E94B819D5016C913C
:10413000611103C061E577E02EC0C6010E947C5783
:104140006DE477E0C6010E94B819F501808190E026
:1041500001971EE2189FB001199F700D112463573B
:104160007F4DC6010E94985960E2C6010E944458E2
:10417000D5018C9190E00197189FF001199FF00DE7
:104180001124ED58FF4D838185FF03C069E777E077
:1041900002C06FE577E0C6010E94B8196FE57CE0C8
:1041A000C6010E94B819F701808180FF10C04189C3
:1041B0005289638974898BEB9EE20E94005F8BEBCE
:1041C0009EE20E943A5EBC01C6010E9498596FE5CA
:1041D0007CE0C6010E94B819D7018C9180FF12C003
:1041E00055964D915D916D917C9158978BEB9EE228
:1041F0000E94005F8BEB9EE20E943A5EBC01C6010A
:104200000E9498596FE57CE0C6010E94B819F5013B
:104210007A970081319620813297408169E4C60106
:104220000E94CE996FE57CE0C6010E94B819F701A3
:104230004681578160857185C6010E9492566FE55F
:104240007CE0C6010E94B819D7011A964D915D9184
:104250006D917C911D97C6010E9492566FE57CE09E
:10426000C6010E94B819F7018081918191FF03C0B6
:1042700069E777E002C06FE577E0C6010E94B819F0
:1042800066EC7BE0C6010E94B819FAE2EF0EF11C61
:104290002AE2A20EB11C3AE08316910409F01BCE6B
:1042A0006DEB7BE0C6010E94B8196EE67CE0C601AA
:1042B0000E94B81960EF77E0C6010E94B8196FE557
:1042C0007CE0C6010E94B81960E277E0C6010E9456
:1042D000B81960E5C6010E94445862E670E1C60163
:1042E0000E94B819A8EEAA2EAEE1BA2E01E010E0A5
:1042F00069E17CE0C6010E94B819FF24FA94F00E2F
:104300006F2DC6010E947C5780915D058F1103C0FF
:104310006DE07CE002C062E670E1C6010E94B8195F
:10432000B801C6010E9471576DE477E0C6010E9492
:10433000B819B501C6010E94985963E07CE0C60136
:104340000E94B8190F5F1F4F4AE2A40EB11C0B3038
:10435000110571F669EF7BE0C6010E94B8196CE4A3
:104360007CE0C6010E94B81968EA7BE0C6010E94A1
:10437000B8196FE57CE0C6010E94B81940915D054F
:104380001AE2149FA00111244851514E6EE6C60155
:104390000E94188D6CE47CE0C6010E94B81960EFA1
:1043A00077E0C6010E94B81960E2C6010E94445835
:1043B0006FE872E1C6010E94B8196FE57CE0C601A2
:1043C0000E94B819E0915D051E9FF0011124E15390
:1043D000F14E4081417020E06BE573E0C6010E9420
:1043E00063986CE47CE0C6010E94B81961ED77E047
:1043F000C6010E94B8196FE57CE0C6010E94B81999
:104400006EE077E0C6010E94B819E0915D051E9F3D
:10441000F0011124E153F14E8081918196958795A9
:10442000082F0170EE24E39426E537E041E064E6CE
:1044300073E0C6010E94D219E0915D051E9FF00154
:104440001124E153F14E8081918196958795A1E0E9
:104450008A27082F017020EB37E040E064E673E024
:10446000C6010E94D21967E077E0C6010E94B81920
:104470006CE47CE0C6010E94B8196CE375E0C601EB
:104480000E940F9A6FE57CE0C6010E94B819E09186
:104490005D051E9FF0011124E153F14E40815181D1
:1044A000440F452F441F550B5195417020E06AE998
:1044B00073E0C6010E9463986CE47CE0C6010E9430
:1044C000B8196EE375E0C6010E940F9A6FE57CE0B3
:1044D000C6010E94B819E0915D051E9FF0011124EC
:1044E000E153F14E4081518196E0569547959A955A
:1044F000E1F7417020E061E973E0C6010E94639832
:104500006CE47CE0C6010E94B81960E475E0C60165
:104510000E940F9A6FE57CE0C6010E94B819E091F5
:104520005D051E9FF0011124E153F14E4081518140
:1045300025E0569547952A95E1F7417020E068E817
:1045400073E0C6010E94639867E077E0C6010E94AD
:10455000B8196CE47CE0C6010E94B81962E475E009
:10456000C6010E940F9A6FE57CE0C6010E94B8194F
:10457000E0915D051E9FF0011124E153F14E408151
:10458000518134E0569547953A95E1F7417020E026
:104590006FE773E0C6010E9463986CE47CE0C6019B
:1045A0000E94B81964E475E0C6010E940F9A6FE595
:1045B0007CE0C6010E94B819E0915D051E9FF001E4
:1045C0001124E153F14E4081518163E056954795A6
:1045D0006A95E1F7417020E066E773E0C6010E944A
:1045E00063986CE47CE0C6010E94B81966E475E04B
:1045F000C6010E940F9A6FE57CE0C6010E94B819BF
:10460000E0915D051E9FF0011124E153F14E4081C0
:1046100051815695479556954795417020E06DE636
:1046200073E0C6010E9463986CE47CE0C6010E94BE
:10463000B8196AE375E0C6010E940F9A6FE57CE045
:10464000C6010E94B819E0915D051E9FF00111247A
:10465000E153F14E4181417020E063EA73E0C6010D
:104660000E9463986CE47CE0C6010E94B81961E086
:1046700077E0C6010E94B81960E2C6010E94445862
:1046800068E37CE0C6010E94B8196FE57CE0C601D2
:104690000E94B81969E27CE0C6010E94B81968E678
:1046A000C6010E94445862E670E1C6010E94B81932
:1046B00000E010E0EAE2BE2EFCE3EF2EF12CE091E8
:1046C0005D05BE9EF0011124E153F14E838194817A
:1046D000B7010E94ADD36017710761F469E17CE016
:1046E000C6010E94B819602FC6010E947C576DE078
:1046F0007CE00BC069E17CE0C6010E94B819602F24
:10470000C6010E947C5762E670E1C6010E94B8199A
:10471000602FC6010E947C5763E07CE0C6010E94C6
:10472000B8190F5F1F4F0831110549F669EF7BE09B
:10473000C6010E94B81960EA71E1C6010E94B81969
:1047400069E27CE0C6010E94B8196DE6C6010E94CC
:10475000445862E670E1C6010E94B81900E010E01A
:10476000FAE2BF2EACE3EA2EF12CE0915D05BE9E8D
:10477000F0011124E153F14E83819481B7010E942D
:10478000ADD369E17CE08017910751F4C6010E9426
:10479000B819602FC6010E947C576DE07CE009C00B
:1047A000C6010E94B819602FC6010E947C5762E6BC
:1047B00070E1C6010E94B819602FC6010E947C57A3
:1047C00063E07CE0C6010E94B8190F5F1F4F0C33F5
:1047D000110559F669EF7BE0C6010E94B8196CE437
:1047E0007CE0C6010E94B81960EB77E0C6010E9428
:1047F000B81960E2C6010E94445868E37CE0C60133
:104800000E94B8196FE57CE0C6010E94B819E091DA
:104810005D051AE21E9FF0011124E153F14E428121
:1048200060E7C6010E94448D6CE47CE0C6010E94F2
:10483000B81960EB77E0C6010E94B81960E2C601C2
:104840000E94445868EF76E0C6010E94B8196FE5EF
:104850007CE0C6010E94B81966EE76E0C6010E94AF
:10486000B819E0915D051E9FF0011124E153F14E4E
:10487000808191819C01232F3327229526952770D3
:10488000892F992782958F7082239323817099278E
:10489000B1E08B27082F0170E12C2FEE3BE040E0C8
:1048A00062E874E0C6010E94D219E0915D051E9F86
:1048B000F0011124E153F14E8081918194FB002796
:1048C00000F9892F9927829586958770E1E08E27D8
:1048D000082326ED3BE041E062E874E0C6010E9457
:1048E000D219E0915D051E9FF0011124E153F14EB4
:1048F000808191819C01232F332722952F70F1E035
:104900002F27892F99278295869587708170082F88
:1049100002232EED36E042E062E874E0C6010E9418
:10492000D219E0915D051E9FF0011124E153F14E73
:10493000808191819C01232F332722952F70892F0D
:10494000992782958695877082239323082F01707B
:1049500027ED36E043E062E874E0C6010E94D21918
:1049600067E077E0C6010E94B8196CE47CE0C601FC
:104970000E94B8196CEA77E0C6010E94B81960E29B
:10498000C6010E94445868E37CE0C6010E94B81941
:104990006FE57CE0C6010E94B819E0915D051E9F9D
:1049A000F0011124E153F14E458162E7C6010E94F6
:1049B000448D6CE47CE0C6010E94B8196CEA77E093
:1049C000C6010E94B81960E2C6010E94445868EF0F
:1049D00076E0C6010E94B8196FE57CE0C6010E942E
:1049E000B81966EE76E0C6010E94B819E0915D053F
:1049F0001E9FF0011124E153F14E808191819C01B1
:104A00002227330F221F332784E0989F812D992777
:104A100011248223932321E08227082F01702FEE97
:104A20003BE040E063E173E0C6010E94D219E091EF
:104A30005D051E9FF0011124E153F14E208131816B
:104A4000C90184E0989F812D99271124032F009597
:104A5000001F0027001F082326ED3BE041E063E133
:104A600073E0C6010E94D219E0915D051E9FF0011E
:104A70001124E153F14E808191819C0124E0329F09
:104A8000212D3327112441E024278827990F881FDF
:104A9000992782239323082F01702EED36E042E000
:104AA00063E173E0C6010E94D219E0915D051E9F8B
:104AB000F0011124E153F14E808191818C0104E0D9
:104AC000109F012D112711248827990F881F9927DE
:104AD00008231923017027ED36E043E063E173E01A
:104AE000C6010E94D21967E077E0C6010E94B8199A
:104AF0006CE47CE0C6010E94B81964EA77E0C60164
:104B00000E94B81960E2C6010E9444586CE977E03F
:104B1000C6010E94B8196FE57CE0C6010E94B81971
:104B200069E27CE0C6010E94B81964E7C6010E94F0
:104B3000445862E670E1C6010E94B81910E00FE126
:104B4000EAE29E2E8091801C181708F052C0E12ED8
:104B5000F12C0E9DC0010F9D900D1124DC01A55D6F
:104B6000BA4D5D0111968C91893409F040C069E11C
:104B70007CE0C6010E94B819612FC6010E947C57D3
:104B8000E0915D059E9EF0011124E153F14ED501A7
:104B90009C91868598130EC013969C9113978089DB
:104BA000981308C012969C918785981303C06DE0F6
:104BB0007CE002C062E670E1C6010E94B819612F74
:104BC000C6010E9497986AE3C6010E9444580E9D50
:104BD000F0010F9DF00D1124E55DFA4D6281C601D3
:104BE0000E94909963E07CE0C6010E94B8191F5FA3
:104BF000A9CF69EF7BE0C6010E94B8196CE47CE0A4
:104C0000C6010E94B81967EA77E0C6010E94B81988
:104C100060E2C6010E94445864E272E1C6010E944B
:104C2000B8196FE57CE0C6010E94B81969E27CE022
:104C3000C6010E94B81961E6C6010E94445862E6A6
:104C400070E1C6010E94B8198FE5E82E80E2F82EC7
:104C500010E00AE269E17CE0C6010E94B819612F08
:104C6000C6010E947C57E0915D050E9FF001112462
:104C7000E153F14E81A5811303C06DE07CE002C0D9
:104C800062E670E1C6010E94B819111106C061E523
:104C900077E0C6010E94B8190DC0612FC6010E94BD
:104CA0007C576DE477E0C6010E94B819B701C601D0
:104CB0000E94985963E07CE0C6010E94B8191F5F0A
:104CC000BEE2EB0EF11C1B3029F669EF7BE0C6015A
:104CD0000E94B8196CE47CE0C6010E94B8196EEC21
:104CE00076E0C6010E94B81960E2C6010E944458ED
:104CF00068E57FE1C6010E94B8196FE57CE0C60156
:104D00000E94B819E0915D051AE21E9FF00111247E
:104D1000E153F14E26813781408551856FE6C6010A
:104D20000E94798E6CE47CE0C6010E94B8196EEC9A
:104D300076E0C6010E94B81960E2C6010E9444589C
:104D40006BE57FE1C6010E94B8196FE57CE0C60102
:104D50000E94B819E0915D051E9FF0011124E153F6
:104D6000F14E228533854485558566E6C6010E944D
:104D7000798E66EC7BE0C6010E94B8196DEB7BE092
:104D8000C6010E94B81964E376E0C6010E94B81912
:104D900068E475E0C6010E94B8196DE17BE0C601C8
:104DA0000E94B8196CEE7AE0C6010E94B81964EE50
:104DB0007AE0C6010E94B81969EC7AE0C6010E9447
:104DC000B81903C0C6010E94951A63960FB6F894ED
:104DD000DEBF0FBECDBFDF91CF911F910F91FF902E
:104DE000EF90DF90CF90BF90AF909F908F907F908B
:104DF0006F905F904F903F902F9008952F923F9229
:104E00004F925F926F927F928F929F92AF92BF92DA
:104E1000CF92DF92EF92FF920F931F93CF93DF9386
:104E2000CDB7DEB7C856D1090FB6F894DEBF0FBEB6
:104E3000CDBF6C018B010E9477AFA9968FAFA99768
:104E4000882311F40C945D300330110509F016C36A
:104E5000FCE1FF2EA0EE2A2EA2E03A2E88248394B5
:104E6000912C01E110E09E01275C3F4F42E050E0B1
:104E7000BE01665B7F4FC6010E942819182F2B9632
:104E80000FAD2B97053609F483C20CF041C00435F1
:104E900009F486C0D4F400330CF4E8C208330CF4EF
:104EA00083C288EB800F843008F0E0C24AE050E013
:104EB00060E070E0CE01C9960E945ECAE02F000F4C
:104EC000FF0BE65CF64C6083D1C2023609F4AAC23D
:104ED00074F4013609F0CAC24AE050E060E070E0C4
:104EE000CE01C9960E945ECA6093173BBFC20336CB
:104EF00009F482C2043609F0B9C24AE050E060E029
:104F000070E0CE01C9960E945ECA6093193BAEC2A2
:104F1000023709F441C20CF5073609F49BC20CF4C0
:104F20008EC20B3609F428C20C3609F09FC260E02D
:104F30008EE293E00E94211740905A3150905B31ED
:104F400041EF59E060E070E087E591E30E9456D2BE
:104F500050925B3140925A3189C2063709F457C2E8
:104F600074F4033709F082C24AE050E060E070E078
:104F7000CE01C9960E945ECA6093183B77C208377B
:104F800009F42FC20A3709F071C24AE050E060E02C
:104F900070E0CE01C9960E945ECA60931D3B66C256
:104FA000E0913C31F0913D310684F785E02D6FE0D2
:104FB00077E28CE391E30995882309F455C0E091E9
:104FC0003C31F0913D310680F781E02D8CE391E397
:104FD0000995E0913C31F0913D310488F589E02D4F
:104FE0003E8E2D8E8091823990918339A0918439A3
:104FF000B09185398F8F98A3A9A3BAA34BE750E04E
:10500000BE01635E7F4F8CE391E30995892B31F4F8
:10501000A9960FADA997002379F11CC0E0913C310E
:10502000F0913D310280F381E02D40E350E06CE6E9
:1050300071E08CE391E30995C09751F7E0913C3121
:10504000F0913D31008CF18DE02D8CE391E30995D9
:10505000892B91F4E0913C31F0913D310288F38944
:10506000E02D8CE391E3099540E050E0BA01CE01D8
:1050700001960E94A35F43C100E0E0913C31F091B2
:105080003D31028CF38DE02D8CE391E30995803363
:1050900041F082E690E00E94E2890F5F083269F7F2
:1050A000D9CF88E2E82EE0913C31F0913D31028485
:1050B000F385E02D8CE391E30995EA94E110F3CFB9
:1050C000E0913C31F0913D310284F385E02D8CE399
:1050D00091E30995092E000CAA0BBB0B782E6624D0
:1050E00055244424E0913C31F0913D310284F38514
:1050F000E02D8CE391E30995092E000CAA0BBB0B64
:10510000DC0199278827482A592A6A2A7B2AE091B4
:105110003C31F0913D310284F385E02D8CE391E345
:1051200009955C01E0913C31F0913D310284F385B9
:10513000E02D8CE391E30995092E000CAA0BBB0B23
:1051400084299529A629B729A501BB0C660B770BE5
:10515000762F652F542F44272C013D01442A552AD0
:10516000662A772AE0913C31F0913D310284F38543
:10517000E02D8CE391E309955C01E0913C31F091E5
:105180003D310680F781E02D8CE391E30995E091B4
:105190003C31F0913D310288F389E02D8CE391E3BD
:1051A0000995A0911B3BB0911C3B2CE330E00E9481
:1051B000E5D3AB01BC01525C67417C4B069523E70C
:1051C00030E0201B310981E090E0A0E0B0E02A153A
:1051D0003B051CF080E090E0DC01840F951FA61FCA
:1051E000B71FAC01BD01440D551D661D771D8BEB2E
:1051F0009EE20E94005F6091BB2E70E06053784F8A
:10520000E090203B00911F3B20911E3B40911D3BB5
:10521000CE01845B9F4F0E948214FE01E45BFF4F2E
:10522000A7E6BEE28F2D01900D928A95E1F760917D
:10523000BB2E70E06053784FE0901A3B0091193B11
:105240002091183B4091173BCE01845B9F4F0E94F9
:105250008214FE01E45BFF4FABE4BEE28F2D0190B0
:105260000D928A95E1F78BEB9EE20E946D5F2B0118
:105270003C0187E69EE20E946D5F4616570668066F
:10528000790608F41EC78BEB9EE20E946D5F2B012E
:105290003C018BE49EE20E946D5F641575058605F6
:1052A000970508F40EC78091E73A82608093E73A49
:1052B0008BEB9EE20E946D5F2B013C01A091213B94
:1052C000B091223B80911B3B90911C3BA81BB90BDA
:1052D0002CE330E00E94E5D3AB01BC01440D551D29
:1052E000661D771D8BEB9EE20E94005FEBEBFEE2FA
:1052F000DE0111968F2D01900D928A95E1F7FE0146
:105300003196ABEBBEE28F2D01900D928A95E1F7BD
:105310008BEB9EE20E946D5F672B682B692B09F473
:10532000A5C08BEB9EE20E946D5FAB01BC01CE017C
:105330004D960E94A35FCE014D960E94B75DEBEBA8
:10534000FEE2A3E8BEE28F2D01900D928A95E1F76F
:105350004FEC442E4EE1542E00E0F201808180FF9C
:1053600004C061E0802F0E943D110F5FFAE24F0EF2
:10537000511C0A3091F77AC040E150E0BE01675CF1
:105380007F4F85E599E30E9454D4109265396EC031
:1053900081E00E94A4186AC060E082E393E00E946A
:1053A00021170E94BB1A62C039AD802F000F990BE4
:1053B0002091E73AC097303351F4A40102C0440F62
:1053C000551F8A95E2F7CA018095282307C0F4018A
:1053D00002C0EE0FFF1F8A95E2F72E2B2093E73ACB
:1053E00045C04AE050E060E070E0CE01C9960E94FE
:1053F0005ECA60931E3B3AC04AE050E060E070E055
:10540000CE01C9960E945ECA60931F3B2FC04AE03E
:1054100050E060E070E0CE01C9960E945ECA6093E1
:10542000203B24C04AE050E060E070E0CE01C99625
:105430000E945ECA7093223B6093213B17C04AE0F2
:1054400050E060E070E0CE01C9960E945ECA6093B1
:105450001A3B0CC04AE050E060E070E0CE01C99613
:105460000E945ECA70931C3B60931B3B1111F9CCE8
:1054700068E073E0C6010E943D1A29C640E050E092
:1054800065E173E0C6010E94631A40E061E0C60175
:105490000E941F966FE87CE0C6010E94B81968E080
:1054A00073E0C6010E9498596EE77CE0C6010E9435
:1054B000B81961EB7CE0C6010E94B8196AE972E193
:1054C000C6010E94B8196EE97CE0C6010E94B819B5
:1054D0006EE67CE0C6010E94B81967EB77E0C60172
:1054E0000E94B8196FE57CE0C6010E94B81983E8F4
:1054F0009EE20E943A5EBC01C6010E9498596CE48B
:105500007CE0C6010E94B81961E077E0C6010E9404
:10551000B81961E272E1C6010E94B8196FE57CE03A
:10552000C6010E94B8198FE99EE20E943A5EBC0152
:10553000C6010E9498596CE47CE0C6010E94B8192B
:105540006DEC79E0C6010E94B8196FE57CE0C601F8
:105550000E94B81983E89EE20E946D5F4B015C01D6
:105560008FE99EE20E946D5F95018401061B170B77
:10557000280B390BB901A8018BEB9EE20E94005F5A
:105580000E94A18DBC01C6010E9498596CE47CE088
:10559000C6010E94B81960EC79E0C6010E94B819F2
:1055A0006FE57CE0C6010E94B8191B9B03C06FE544
:1055B00077E002C069E777E0C6010E94B8196CE4A1
:1055C0007CE0C6010E94B8196BE47BE0C6010E9432
:1055D000B8196FE57CE0C6010E94B819189B03C09A
:1055E00069E777E002C06FE577E0C6010E94B8196D
:1055F0006CE47CE0C6010E94B81960EB79E0C6015A
:105600000E94B81960E2C6010E9444586BEA79E032
:10561000C6010E94B8196FE57CE0C6010E94B81966
:105620008091E73A81FF03C069E777E002C06FE548
:1056300077E0C6010E94B8196CE47CE0C6010E94C4
:10564000B81960EB79E0C6010E94B81960E2C601A2
:105650000E94445865EA79E0C6010E94B8196FE5D6
:105660007CE0C6010E94B81969E27CE0C6010E9494
:10567000B8196AE7C6010E94445862E670E1C601A3
:105680000E94B8193DE5E32E38E0F32E570100E003
:1056900010E080911D3B90E069E17CE0801791076C
:1056A00051F4C6010E94B819602FC6010E944C57E0
:1056B0006DE07CE009C0C6010E94B819602FC601E8
:1056C0000E944C5762E670E1C6010E94B819B5010C
:1056D000C6010E940F9A63E07CE0C6010E94B819DF
:1056E0000F5F1F4F22E0A20EB11C0530110589F695
:1056F00069EF7BE0C6010E94B81960E2C6010E9412
:10570000445869E27CE0C6010E94B81968E7C60106
:105710000E94445862E670E1C6010E94B8190AE38B
:1057200015E04801A12CB12C80911E3B90E069E16D
:105730007CE08A159B0551F4C6010E94B8196A2DB8
:10574000C6010E944C576DE07CE009C0C6010E9472
:10575000B8196A2DC6010E944C5762E670E1C60175
:105760000E94B819B401C6010E940F9A63E07CE060
:10577000C6010E94B8193FEFA31AB30A42E0840E93
:10578000911C57E0A516B10479F669EF7BE0C601DC
:105790000E94B81960E2C6010E94445862EA79E0AA
:1057A000C6010E94B81960E2C6010E94445869E22D
:1057B0007CE0C6010E94B81963E6C6010E94445805
:1057C00062E670E1C6010E94B81925E4622E28E065
:1057D000722E530180E090E040901F3B512C9201CB
:1057E00021503109FC0131964F0169E17CE0281715
:1057F000390751F4C6010E94B819B201C6010E94CE
:1058000071576DE07CE009C0C6010E94B819B4016F
:10581000C6010E94715762E670E1C6010E94B81984
:10582000B501C6010E940F9A63E07CE0C6010E94A8
:10583000B819C401F2E0AF0EB11C8C30910561F6CD
:1058400069EF7BE0C6010E94B81960E2C6010E94C0
:1058500044586FE979E0C6010E94B81960E2C601B8
:105860000E94445869E27CE0C6010E94B81966E7CC
:10587000C6010E94445862E670E1C6010E94B81950
:10588000A12CB12C9A2C8091203B90E069E17CE026
:105890008A159B0551F4C6010E94B8196A2DC601EC
:1058A0000E944C576DE07CE009C0C6010E94B81907
:1058B0006A2DC6010E944C5762E670E1C6010E9443
:1058C000B819692DC6010E944C5763E07CE0C601FF
:1058D0000E94B8192FEFA21AB20A38E1A316B10438
:1058E00089F669EF7BE0C6010E94B8196BE672E1A8
:1058F000C6010E94B81968E979E0C6010E94B8198A
:1059000060E2C6010E9444584091213B5091223BE5
:1059100062E6C6010E94758D60E2C6010E9444588D
:1059200066ED7BE0C6010E94B8196CE47CE0C6011C
:105930000E94B8196FE57CE0C6010E94B81987E69D
:105940009EE20E943A5EBC01C6010E9498596CE436
:105950007CE0C6010E94B81960EB79E0C6010E94A4
:10596000B81960E2C6010E94445864E979E0C601B2
:105970000E94B8196FE57CE0C6010E94B81969E27F
:105980007CE0C6010E94B81961E6C6010E94445835
:1059900062E670E1C6010E94B819A12CB12C809179
:1059A000173B90E069E17CE08A159B0551F4C60144
:1059B0000E94B8196A2DC6010E944C576DE07CE028
:1059C00009C0C6010E94B8196A2DC6010E944C5731
:1059D00062E670E1C6010E94B819B701C6010E94D3
:1059E0000F9A63E07CE0C6010E94B8194FEFA41A39
:1059F000B40A52E0E50EF11C85E0A816B10479F670
:105A000069EF7BE0C6010E94B81960E2C6010E94FE
:105A1000445869E27CE0C6010E94B81963E7C601F8
:105A20000E94445862E670E1C6010E94B819E12C58
:105A3000F12C8091183B90E069E17CE08E159F0588
:105A400051F4C6010E94B8196E2DC6010E944C5730
:105A50006DE07CE009C0C6010E94B8196E2DC60138
:105A60000E944C5762E670E1C6010E94B819B80165
:105A7000C6010E940F9A63E07CE0C6010E94B8193B
:105A8000EFEFEE1AFE0A0E5F1F4FF7E0EF16F1047C
:105A900081F669EF7BE0C6010E94B81960E2C60199
:105AA0000E94445862EA79E0C6010E94B81960E297
:105AB000C6010E94445869E27CE0C6010E94B81900
:105AC00064E6C6010E94445862E670E1C6010E9485
:105AD000B81980E090E00091193B10E09801215046
